:1000000054C478C477C476C475C445CB73C472C471
:1000100071C470C46FC46EC46DC46CC46BC4000082
:10002000000000000000002F000000000700070093
:1000300000147F147F1400242A7F2A1200626408AF
:10004000132300364955225000000503000000002C
:100050001C224100000041221C000014083E08142C
:100060000008083E0808000000A06000000808081A
:100070000808000060600000002010080402003E34
:100080005149453E0000427F4000004261514946CF
:10009000002141454B31001814127F1000274545BF
:1000A0004539003C4A4949300001710905030036D1
:1000B0004949493600064949291E000036360000E4
:1000C00000005636000000081422410000141414E9
:1000D00014140000412214080002015109060032E4
:1000E0004959513E007C1211127C007F4949493622
:1000F000003E41414122007F4141221C007F49498D
:100100004941007F09090901003E4149497A007FC0
:100110000808087F0000417F4100002040413F0166
:10012000007F08142241007F40404040007F020CC5
:10013000027F007F0408107F003E4141413E007F66
:1001400009090906003E4151215E007F091929462F
:100150000046494949310001017F0101003F40400B
:10016000403F001F2040201F003F4038403F0063B9
:1001700014081463000708700807006151494543DB
:1001800000007F41410000020408102000004141AE
:100190007F00000402010204004040404040000093
:1001A00001020400002054545478007F484444382D
:1001B00000384444442000384444487F00385454B4
:1001C000541800087E0901020018A4A4A47C007F32
:1001D000080404780000447D4000004080847D00D5
:1001E000007F102844000000417F4000007C04187C
:1001F0000478007C0804047800384444443800FC47
:10020000242424180018242418FC007C0804040862
:1002100000485454542000043F444020003C4040D7
:10022000207C001C2040201C003C4030403C00440E
:1002300028102844001CA0A0A07C004464544C4416
:100240000008364141000000007F000000004141ED
:100250003608000804081008000000000000000034
:100260000000000000000000000000F80000000096
:10027000000000333000000000100C06100C0600D7
:10028000000000000000000040C07840C07840003E
:10029000043F04043F040400007088FC08300000A0
:1002A000001820FF211E0000F008F000E0180000F8
:1002B00000211C031E211E0000F0088870000000B1
:1002C0001E2123241927211010160E000000000003
:1002D0000000000000000000000000E01804020020
:1002E000000000071820400000020418E000000091
:1002F0000040201807000000404080F0804040008F
:100300000202010F01020200000000F000000000E4
:100310000101011F010101000000000000000000B8
:1003200080B070000000000000000000000000002D
:1003300000010101010101010000000000000000B6
:100340000030300000000000000000008060180451
:10035000006018060100000000E010080810E0002E
:10036000000F102020100F00001010F800000000F7
:100370000020203F2020000000700808088870003E
:1003800000302824222130000030088888483000BE
:100390000018202020110E000000C02010F80000DE
:1003A00000070424243F240000F808888808080077
:1003B0000019212020110E0000E01088881800008C
:1003C000000F112020110E0000380808C83808005E
:1003D0000000003F000000000070880808887000DE
:1003E000001C222121221C0000E010080810E0005F
:1003F0000000312222110F00000000C0C0000000E8
:10040000000000303000000000000080000000000C
:100410000000806000000000000080402010080004
:1004200000010204081020004040404040404000CD
:1004300004040404040404000008102040800000A8
:100440000020100804020100007048080808F000AD
:100450000000003036010000C030C828E810E0007D
:100460000718272423140B000000C038E000000008
:10047000203C23020227382008F888888870000072
:10048000203F202020110E00C03008080808380046
:10049000071820202010080008F808080810E000BD
:1004A000203F202020100F0008F88888E80810005E
:1004B000203F20202320180008F88888E808100032
:1004C000203F200003000000C0300808083800006A
:1004D00007182020221E020008F808000008F8086B
:1004E000203F210101213F20000808F808080000F2
:1004F0000020203F2020000000000808F808080025
:10050000C08080807F00000008F888C0281808009C
:10051000203F20012638200008F8080000000000D5
:10052000203F20202020300008F8F800F8F80800CC
:10053000203F003F003F200008F830C00008F808C6
:10054000203F200007183F00E01008080810E000D6
:100550000F10202020100F0008F808080808F000ED
:10056000203F210101010000E01008080810E00010
:100570000F18242438504F0008F8888888887000A5
:10058000203F2000030C3020007088080808380045
:100590000038202121221C00180808F8080818003B
:1005A0000000203F2000000008F808000008F808BC
:1005B000001F202020201F000878880000C838086D
:1005C000000007380E010000F80800F80008F800E5
:1005D000033C0700073C030008186880806818087F
:1005E00020302C03032C30200838C800C8380800FD
:1005F0000000203F2000000010080808C83808004C
:100600002038262120201800000000FE02020200EF
:100610000000007F40404000000C30C0000000009F
:10062000000000010638C00000020202FE000000C7
:10063000004040407F00000000000402020204006D
:1006400000000000000000000000000000000000AA
:100650008080808080808080000202040000000092
:10066000000000000000000000008080808000008A
:100670000019242222223F2008F800808000000078
:10068000003F112020110E0000000080808000003B
:10069000000E112020201100000000808088F8004A
:1006A000000E112020103F2000008080808000007C
:1006B000001F222222221300008080F088888818E0
:1006C0000020203F202000000000808080808000EB
:1006D000006B94949493600008F800808080000080
:1006E000203F210000203F2000809898000000005B
:1006F0000020203F2020000000000080989800008B
:1007000000C08080807F000008F8000080808000AA
:10071000203F24022D302000000808F800000000CF
:100720000020203F2020000080808080808080008A
:10073000203F20003F20003F80800080808000001C
:10074000203F210000203F200000808080800000AA
:10075000001F202020201F008080008080000000DB
:1007600080FFA12020110E0000000080808080000A
:10077000000E112020A0FF808080800080808000FB
:1007800020203F2120000100000080808080800028
:100790000033242424241900008080E0808000009D
:1007A0000000001F202000008080000000808000EA
:1007B000001F202020103F2080808000008080804B
:1007C00000010E30080601008080008000808080DB
:1007D0000F300C030C300F00008080008080800000
:1007E0000020312E0E31200080808000008080802B
:1007F00080818E70180601000080808080808000DB
:100800000021302C2221300000000000807C0202F8
:1008100000000000003F404000000000FF0000001A
:1008200000000000FF0000000002027C80000000C9
:100830000040403F000000000006010102020404E5
:1008400000000000000000004461633A005A657235
:100850006F696E672E2E2E003D004F696C2050721E
:100860006573737572653A2000414D5045442121EE
:10087000210052657365743F205072657373206167
:100880006E6420486F6C642E00000000003700008A
:1008900000000036000000000038000202020202E0
:1008A0000201020408102000F80C11241FBECFE53D
:1008B000D2E0DEBFCDBF10E0A0E6B0E0ECEBFFE1A0
:1008C00002C005900D92A638B107D9F720E0A6E83E
:1008D000B0E001C01D92AE3DB207E1F714E0C5E5FE
:1008E000D4E003C02197FE015BDAC435D107D1F70C
:1008F0001CD762CB85CB82E087B987B187B9369A9E
:100900003699FECF84B195B108959093D00080932D
:10091000CF00FC01228121111AC082858093CE0074
:1009200081EE96E09093D7008093D6001092D90084
:100930001092D8008AE196E09093D3008093D20081
:100940001092D5001092D4001092D1000895109208
:10095000CE00E6CF3FB7F8948091BE009091BF00E3
:10096000A091C000B091C10022B708B601FE05C039
:100970002F3F19F00196A11DB11D3FBFBA2FA92F1E
:10098000982F8827BC01CD01620F711D811D911D1B
:1009900043E0660F771F881F991F4A95D1F7089586
:1009A000CF92DF92EF92FF92CF93DF936B017C01A6
:1009B000D1DFEB01CFDF6C1B7D0B683E7340A0F0F5
:1009C000C114D104E104F10439F4DF91CF91FF9017
:1009D000EF90DF90CF90089581E0C81AD108E10828
:1009E000F108C851DC4FE6CFC114D104E104F10491
:1009F00009F7EBCF2FB7F8946091BA007091BB0064
:100A00008091BC009091BD002FBF0895CF92DF92DE
:100A1000EF92FF920F931F93CF93DF936C01EB0143
:100A20007B01E40EF51E10E000E0CE15DF0561F05D
:100A30006991D601ED91FC910190F081E02DC60104
:100A40000995080F191FF1CFC801DF91CF911F91B0
:100A50000F91FF90EF90DF90CF900895E091D60036
:100A6000F091D7002091D8003091D900A9014170B0
:100A70005527309719F44115510579F0359527958B
:100A8000820F931F452B41F0DC012D913C91E20F29
:100A9000F31F0190F081E02D099581E090E0089529
:100AA000DDCFCF93DF936DE08AED90E0D7DFEC01EF
:100AB0006AE08AED90E0D2DF8C0F9D1FDF91CF912D
:100AC00008950F931F93CF93DF938C01D0E0C0E084
:100AD000F801EC0FFD1F6491662339F08AED90E078
:100AE000BDDF892B11F02196F3CFCE01DF91CF919D
:100AF0001F910F910895CF93DF93E3DFEC01D1DFD6
:100B00008C0F9D1FDF91CF910895E091A300F0918C
:100B1000A4000994E091A100F091A2000994E09151
:100B20009F00F091A0000994CF93C82FF3DF8111AB
:100B300006C0EBDFF4DF80E4EDDF8C2FEBDF80918C
:100B4000CB008F5F8093CB00CF910895E8DF80E0EA
:100B5000E1CFCF93C091650080E2C827C0936500C4
:100B6000F5DF8C2FD7DFD1DF8091640094E08927F7
:100B700080936400CF9108951F93CF93DF93C82F84
:100B8000162FD62FD77080916400D82BDFDF8D2FE2
:100B9000C1DF8C2F82958F708061BCDF8C2F8F70AE
:100BA000B9DFB3DFC093CD001093CC001092CB001F
:100BB000DF91CF911F9108950F931F93CF93DF93F0
:100BC000C0E010E86C2F80E0D7DF8091CD00012FCE
:100BD000081B61F01093CD00A2DF80E49BDFD0E022
:100BE00080E0A2DFDF5F0D13FBCF8FDFCF5FC4306C
:100BF00049F760E080E0DF91CF911F910F91BCCF6A
:100C00008091D10001C0660F8A95EAF78091CC00EF
:100C1000860F24E030E0261B31098217130609F005
:100C200034F48093CC006091CC0080E0A5CF84E0C8
:100C3000861BF7CFAF92BF92CF92DF92EF92FF92D7
:100C40000F931F93CF93DF93A091CF00B091D0006B
:100C500012961C911297C62FD0E011110DC0149658
:100C60002C911497AE01421B51091896ED91FC91FD
:100C70001997E40FF51F14911396BC900091CE00C4
:100C8000E12EF12C4091CD0020E830E02E193F09F3
:100C90004217130619F014F06B2DB2DF8091CD00CE
:100CA0008E0D9F2D911D800F911D813891050CF0A7
:100CB00000E0A091CF00B091D00014968C911497D1
:100CC000C81BD10971F012968C91129713966C91F2
:100CD000139770E08823C9F090E051D8BE014FD837
:100CE000EC01AB2C1CDF80E415DFCE01282F2C1B80
:100CF000211708F438C0CE0DDF1DD12C0D1509F4D5
:100D000043C080E011DFD394F9CFAE01F4E05695F3
:100D10004795FA95E1F730E020E090E080E0421757
:100D2000530781F06901CC0CDD1C1696ED91FC9106
:100D30001797EC0DFD1DC590D4908C0D9D1D2F5F58
:100D40003F4FEDCF9E01207F2C173D0740F61896B0
:100D5000ED91FC911997E20FF31FE4918E0F911D15
:100D60002F5F3F4FF1CF6C012FEFC21AD20AE091F3
:100D7000CF00F091D0000190F081E02DE80FF91F35
:100D80008491D2DEC601B2CFC0DE6091CC0031E0EA
:100D90006F5F8091CD003A1528F06B198091CD00DE
:100DA000810F800FE9DEAA94A1109CCFDF91CF9133
:100DB0001F910F91FF90EF90DF90CF90BF90AF9079
:100DC00008956D3031F1E091CF00F091D0006A309C
:100DD00011F4638115CF24816217D8F0258126177D
:100DE000C0F02091D4003091D500A90155954795C8
:100DF000840F951FE091D200F091D30020FF08C02E
:100E0000DC012D913C91E20FF31F0190F081E02D68
:100E100009940895CF93DF93EC01CEDE81E790E053
:100E200074DDCE0168DEDF91CF9193CEC09AC29A75
:100E3000BA9AB89A8FEF8FB98AE28DB980EF8EB9DE
:100E400008951092980088E78093860081E00895C5
:100E5000E0919800E13148F4EF5FE0939800F0E012
:100E6000EA57FF4F808381E0089580E0089590B7AE
:100E70009F7D90BF811105C08FB7F894C1988FBF37
:100E800008958FB7F894C19AFACF8F929F92AF923C
:100E9000BF92CF92DF92EF92FF922DDDC090620061
:100EA000D09063008C159D0508F45FC0F12CE12CF7
:100EB000B0E0A0E0BC01CD016C197D098E099F094D
:100EC00028EE33E040E050E003D7209160003091FD
:100ED000610050E040E02C193D094E095F0911D72F
:100EE000CA01B901BBD520E030E040E251E4C3D7EC
:100EF0006B017C0180909A0090909B00A0909C00D8
:100F0000B0909D0020E030E0A901C501B4014CD8AB
:100F100018167CF5A7019601C501B40148D720E059
:100F200030E040E05FE3F9D560939A0070939B0056
:100F300080939C0090939D0020E030E040E251E4DB
:100F400060919A0070919B0080919C0090919D000F
:100F50007FD587FF17C081E0FF90EF90DF90CF90A3
:100F6000BF90AF909F908F9082CFC12CD12C7601F3
:100F7000C1CFC0929A00D0929B00E0929C00F09268
:100F80009D00DACF80E0E8CFCF92DF92EF92FF9220
:100F9000C090C700D090C800E090C900F090CA008F
:100FA00029DD6C157D058E059F0508F44BC08091E9
:100FB000C20087FF0DC08F7709F44BC0813009F460
:100FC0004AC0823009F449C0833009F448C08FEF29
:100FD00090E0FC01EF55F74F2491FC01E556F74FE7
:100FE000E49190E080E0EE2379F0F0E0EE0FFF1F57
:100FF000E157F74FA591B491EC91E22331E020E065
:1010000009F430E0832F922F2091C500281719068C
:10101000C9F0F0DC2091C3003091C400620F731F4F
:10102000811D911D6093C7007093C8008093C90013
:101030009093CA008091C50091E089278093C500F4
:101040009093C6008091C500FF90EF90DF90CF9005
:10105000089585E0BDCF82E0BBCF84E0B9CF83E0C7
:10106000B7CFCF93DF9387FF09C08F7771F18130BE
:1010700071F1823071F1833071F18FEF90E0FC01FA
:10108000EF55F74F24918556974FFC0184918823A3
:10109000C9F090E0880F991FFC01E757F74FA59121
:1010A000B491FC01EB56F74FC591D491611115C075
:1010B0009FB7F8948C91209582238C938881282364
:1010C00028839FBFDF91CF91089585E0D7CF82E03D
:1010D000D5CF84E0D3CF83E0D1CF623051F49FB736
:1010E000F8943C91822F809583238C93E8812E2B5A
:1010F000E7CF8FB7F894EC912E2B2C938FBFE2CFD4
:101100008F929F92AF92BF92EF92FF920F931F9395
:10111000CF93DF93CDB7DEB7A1970FB6F894DEBFBC
:101120000FBECDBF162F042F19A2423008F40AE0DB
:101130007E0121E2E20EF11C802E912CB12CA12C1B
:10114000612FA5019401F9D5802F622FB8D5181B06
:101150001A303CF5105DF70112937F01122F732FA7
:10116000CA01232B242B252B59F701900020E9F7E6
:101170003197AF014E195F09B7018AED90E046DC67
:10118000A1960FB6F894DEBF0FBECDBFDF91CF9111
:101190001F910F91FF90EF90BF90AF909F908F9015
:1011A0000895195CD8CF04D7C29AC29BFECF8DE0B8
:1011B0008A95F1F70000C0988AE08A95F1F700C09F
:1011C000C298C09A779905C083E080939E0080E022
:1011D000089581E008958EB98BE29DE09A95F1F72C
:1011E00000008DB9B29BFECF9AE09A95F1F700C04E
:1011F0008DB9769BF2CF8DE08A95F1F700008FB123
:101200009FEF9FB9B89A0895CF92DF92EF92FF9225
:101210000F931F93CF93DF930091980081E0809309
:101220009E008091860080FD03C083E080939E0035
:10123000BBDF882311F10F5F102FC6E8D0E0DD245B
:10124000DA94CC24C3947E018FEFE81AF80A8091D7
:101250009E00837009F44AC0C29888818FB980EFDC
:10126000BADFB8988EEFB7DF90919E0080FF12C072
:1012700081E090FF82E080939E0010929800809120
:101280009E00DF91CF911F910F91FF90EF90DF9023
:10129000CF900895892F8570843061F48091860005
:1012A000816080938600C0929E007EDF81112AC0FB
:1012B0008AE0E1CF9E7F90939E00E701115009F0F4
:1012C000C2CF10929800C098C29AB29BFECF8AE01B
:1012D0008A95F1F700C0C09A8DE08A95F1F7000079
:1012E000759914C084E080939E00CBCFB89880EFAE
:1012F00072DF8883113021F4DFB88EEF6CDFDDCF31
:101300001FB8FBCF102FC6E8D0E0D8CF80E0B9CF10
:10131000FF920F931F93CF93DF93EC018B01FB019F
:10132000F080B7D4F81619F06F2DCE01BAD4F801B9
:10133000F1802196CE01ADD4F81619F06F2DCE01B3
:10134000B0D4C801DF91CF911F910F91FF90089504
:101350000F931F93CF93DF938C01EB019AD4888373
:10136000C801019696D48983CE01DF91CF911F9158
:101370000F9108954F925F926F927F928F929F92FA
:10138000AF92BF92CF92DF92EF92FF9215DC86E68A
:1013900090E0BBDA8AE598E0AEDB81E790E0B5DA71
:1013A00061E088E2E9DBC0909A00D0909B00E09079
:1013B0009C00F0909D0020E030E0A901C701B6013B
:1013C00047D387FF08C06DE28AED90E047DBF7FA6C
:1013D000F094F7F8F0942AE037ED43EA5BE3C701B5
:1013E000B601E5D44B015C01B3D56B017C0134D36C
:1013F0009B01AC01C501B401D9D44B015C014AE0A9
:10140000C701B6017DDE41E050E064E870E08AED9E
:1014100090E0FCDA20E030E040E251E4C501B401A4
:101420007CD34B015C018FD56B01770FEE08FF0871
:1014300026013701F7FE0CC06DE28AED90E00EDB6D
:10144000F094E094D094C094C11CD11CE11CF11C18
:101450004AE0C701B60154DEB201C301FFD29B01CD
:10146000AC01C501B401A2D420E030E040E251E477
:1014700054D369D56B01770FEE08FF08F7FE0CC057
:101480006DE28AED90E0EADAF094E094D094C094B2
:10149000C11CD11CE11CF11C4AE0C701B60130DEC1
:1014A00000DB86E690E031DA63E080E065DBC12CAA
:1014B000D12C760180E1882E87E2982EA12CB12CC8
:1014C000260137018FEFC81AD80AE80AF80A20E087
:1014D00030E040E251E460919A0070919B0080916D
:1014E0009C0090919D0019D333D590E080E02CEDC5
:1014F00030E040E050E0ECD3A501940102D4421664
:1015000053066406750624F488E598E0DADAD8CF45
:10151000FF90EF90DF90CF90BF90AF909F908F9013
:101520007F906F905F904F9014CB8F929F92AF926D
:10153000BF92CF92DF92EF92FF9262E670E090E06E
:1015400080E006DF60E670E082E090E001DF8091FD
:10155000620090916300853B910508F46AC08CE5B8
:1015600093E09093610080936000109299008AE567
:1015700090E090936300809362003CDA4B015C0141
:101580008091990081117EC07501640133DA681978
:1015900079098A099B09603375478105910508F02F
:1015A0004CC068EC70E080E090E0FAD9A4D92091BA
:1015B0006200309163008217930740F4009731F086
:1015C0002150310930936300209362002091620022
:1015D000309163002817390748F4883C910530F4AE
:1015E0002F5F3F4F309363002093620003DA6C1942
:1015F0007D098E099F09683E73408105910530F28F
:10160000E0906200F0906300D7DA86E690E07DD942
:101610008DE498E070DA88E498E053DAB70190E05E
:1016200080E04AE06DDD3DDA94DAE4D96B017C01BB
:10163000ADCF81E080939900A0CF8091620090911E
:1016400063002091600030916100820F931F8A55E2
:101650009109909361008093600081E080939900EC
:1016600062E670E090E080E053DE60E670E082E0E9
:1016700090E0FF90EF90DF90CF90BF90AF909F9061
:101680008F9046CEFF90EF90DF90CF90BF90AF90BD
:101690009F908F9008951F920F920FB60F92112472
:1016A0002F933F938F939F93AF93BF938091BA00F3
:1016B0009091BB00A091BC00B091BD003091B900E9
:1016C00026E0230F2D3768F129E8230F0396A11D8B
:1016D000B11D2093B9008093BA009093BB00A093F2
:1016E000BC00B093BD008091BE009091BF00A0915E
:1016F000C000B091C1000196A11DB11D8093BE0034
:101700009093BF00A093C000B093C100BF91AF9170
:101710009F918F913F912F910F900FBE0F901F902F
:1017200018950296A11DB11DD4CFCF93DF9300D0A1
:10173000CDB7DEB783E08ABD83BF789489B7826076
:1017400089BF80E48CBD8FEF8DBD87EC80BF86E8BC
:1017500086B962E083E085DC61E081E082DC60E004
:1017600082E87FDC81E083DBE091A500F091A600B8
:101770000995ECD9CAD9EAD98DE8CCD984E1CAD97E
:10178000C4D9E4D988ECC6D981EAC4D9BED980913C
:10179000640094E0892780936400D8D986EDBAD993
:1017A00081E0B8D9B2D989E698E034DBCFD98FEAA5
:1017B000B1D9ABD960ED77E080E090E0F1D8B5DE4B
:1017C00080E055DB62DBD6DD62E08091C20049DC5F
:1017D0000FEF1FEF8AE5E82EF12C9CE5C92E93E070
:1017E000D92EBB24B39406D94090B5005090B600D2
:1017F0006090B7007090B800641575058605970570
:1018000000F5A3019201261B370B480B590BDA0197
:10181000C9018093B5009093B600A093B700B09330
:10182000B8008093B1009093B200A093B300B0933E
:10183000B4008093AD009093AE00A093AF00B0933E
:10184000B000D8D84090B1005090B2006090B30082
:101850007090B4006419750986099709683C710590
:101860008105910550F011DBC5D86093B1007093EC
:10187000B2008093B3009093B400BCD84090AD0008
:101880005090AE006090AF007090B0006419750980
:1018900086099709643F71408105910570F0809138
:1018A000AC0081110AC066DDA5D86093AD007093CD
:1018B000AE008093AF009093B0008091AC0088237D
:1018C000E9F098D84090B5005090B6006090B7000D
:1018D0007090B800641975098609970960337547D7
:1018E0008105910558F01092AC0084D86093B50042
:1018F0007093B6008093B7009093B80045DB8111D8
:1019000015C08091C600882389F08091AB001092A9
:10191000C60081110FC0B092AB006CD86093A700D5
:101920007093A8008093A9009093AA008091AB00C7
:10193000882371F15FD84090A7005090A800609074
:10194000A9007090AA00641975098609970968387A
:10195000734181059105E0F08091AC0081112EC0AA
:10196000B092AC0047D86093B5007093B6008093F6
:10197000B7009093B80082E798E04CDA1092AB0081
:101980001092A7001092A8001092A9001092AA002D
:10199000FBDA882309F427CF8091C600882309F455
:1019A00022CF1092C6001092AB001092A7001092A6
:1019B000A8001092A9001092AA0015CF1A830983DB
:1019C000BE016F5F7F4F90E080E0A2DC1A83098345
:1019D000BE016F5F7F4F82E090E09ADCF09263007F
:1019E000E0926200D0926100C09260009EDDC6CF9E
:1019F000EAEDF0E01382128286E197E09093A60070
:101A00008093A50081E297E09093A00080939F00CF
:101A100088E297E09093A2008093A10084E099E08F
:101A20009093A4008093A30080E890E0918380834A
:101A3000E2ECF0E083E0808384EF91E092838183A5
:101A400081E083831482158216821782108608959E
:101A500040D008F481E00895E89409C097FB3EF473
:101A600090958095709561957F4F8F4F9F4F9923EB
:101A7000A9F0F92F96E9BB279395F6958795779569
:101A80006795B795F111F8CFFAF4BB0F11F460FF29
:101A90001BC06F5F7F4F8F4F9F4F16C0882311F081
:101AA00096E911C0772321F09EE8872F762F05C095
:101AB000662371F096E8862F70E060E02AF09A9530
:101AC000660F771F881FDAF7880F9695879597F925
:101AD0000895990F0008550FAA0BE0E8FEEF1616BF
:101AE0001706E807F907C0F012161306E407F50712
:101AF00098F0621B730B840B950B39F40A2661F086
:101B0000232B242B252B21F408950A2609F4A14028
:101B1000A6958FEF811D811D08950AD080C071D0D8
:101B200028F076D018F0952309F062C067C0ABC0EA
:101B300087D0A8F39923D9F35523C9F3950F50E023
:101B4000551FAA27EE27FF27BB2700240894679577
:101B500020F4E20FF31FB41F0A1E220F331F441F8D
:101B6000AA1F6695A9F7779530F4F30FB41F0A1EE4
:101B7000121E08F46395330F441FAA1F221F769587
:101B800099F7879520F4B40F0A1E121E631F440FA5
:101B9000AA1F221F331F8695A9F7862F712D602D4E
:101BA00011249F5750408AF0E1F088234AF0EE0F4D
:101BB000FF1FBB1F661F771F881F91505040A9F75A
:101BC0009E3F510570F014C05EC05F3FECF3983E3D
:101BD000DCF3869577956795B795F795E7959F5FC1
:101BE000C1F7FE2B880F911D9695879597F908955B
:101BF00097F99F6780E870E060E008959FEF80ECC0
:101C0000089500240A941616170618060906089562
:101C100000240A9412161306140605060895092EC8
:101C20000394000C11F4882352F0BB0F40F4BF2B37
:101C300011F460FF04C06F5F7F4F8F4F9F4F089577
:101C400057FD9058440F551F59F05F3F71F047956D
:101C5000880F97FB991F61F09F3F79F08795089552
:101C6000121613061406551FF2CF4695F1DF08C071
:101C7000161617061806991FF1CF8695710561058E
:101C800008940895E894BB2766277727CB0197F936
:101C90000895E199FECF9FBB8EBBE09A99278DB343
:101CA0000895262FE199FECF1CBA9FBB8EBB2DBB9A
:101CB0000FB6F894E29AE19A0FBE019608950024B7
:101CC00080FD060E660F11F08695D1F7802D0895E0
:101CD000EE27FF27AA27BB2708C0A20FB31FE41FC8
:101CE000F51F220F331F441F551F96958795779533
:101CF000679598F37040A9F7009799F7BD01CF0158
:101D00000895052E97FB16F400940FD057FD05D0CB
:101D100014D007FC02D046F408C050954095309589
:101D200021953F4F4F4F5F4F089590958095709547
:101D300061957F4F8F4F9F4F0895A1E21A2EAA1BE6
:101D4000BB1BFD010DC0AA1FBB1FEE1FFF1FA2176B
:101D5000B307E407F50720F0A21BB30BE40BF50B68
:101D6000661F771F881F991F1A9469F760957095F1
:101D7000809590959B01AC01BD01CF010895002491
:101D8000552704C0080E591F880F991F009729F086
:101D900076956795B8F37105B9F7802D952F08955D
:101DA000EE0FFF1F0590F491E02D09945058BB27CA
:101DB000AA270ED034CF25DF30F02ADF20F031F40F
:101DC0009F3F11F41EF41ACF0EF4E095E7FB10CFFD
:101DD000E92F36DF80F3BA17620773078407950788
:101DE00018F071F49EF54ECF0EF4E0950B2EBA2F3D
:101DF000A02D0B01B90190010C01CA01A001112411
:101E0000FF27591B99F0593F50F4503E68F11A16BC
:101E1000F040A22F232F342F4427585FF3CF46954D
:101E200037952795A795F0405395C9F77EF41F166F
:101E3000BA0B620B730B840BBAF09150A1F0FF0F39
:101E4000BB1F661F771F881FC2F70EC0BA0F621F25
:101E5000731F841F48F4879577956795B795F79515
:101E60009E3F08F0B3CF9395880F08F09927EE0FA7
:101E70009795879508950CD0D2CECADE40F0C1DE8A
:101E800030F021F45F3F19F0B3CE5111FCCEB6CE45
:101E9000D7DE98F39923C9F35523B1F3951B550B5E
:101EA000BB27AA2762177307840738F09F5F5F4F2D
:101EB000220F331F441FAA1FA9F333D00E2E3AF06E
:101EC000E0E830D091505040E695001CCAF729D088
:101ED000FE2F27D0660F771F881FBB1F26173707D7
:101EE0004807AB07B0E809F0BB0B802DBF01FF2707
:101EF00093585F4F2AF09E3F510568F079CEC3CECC
:101F00005F3FECF3983EDCF3869577956795B79540
:101F1000F7959F5FC9F7880F911D9695879597F95B
:101F20000895E1E0660F771F881FBB1F62177307D4
:101F30008407BA0720F0621B730B840BBA0BEE1FE9
:101F400088F7E095089504D06894B1119CCE089567
:101F50007FDE88F09F5790F0B92F9927B751A0F0F6
:101F6000D1F0660F771F881F991F1AF0BA95C9F72D
:101F700012C0B13081F086DEB1E0089583CE672FC4
:101F8000782F8827B85F39F0B93FCCF386957795DD
:101F90006795B395D9F73EF49095809570956195C6
:101FA0007F4F8F4F9F4F089594DD08F48FEF089572
:0C1FB00081E090E0F89400C0F894FFCFAE
:101FBC005C035A00B0401E000601207E00000000A9
:101FCC000058020802207E00000000000000000003
:061FDC00500506052E0071
:00000001FF
